:020000041FFFDC
:10000000F8FF00201104FF1FB728FF1FB728FF1FAC
:10001000B728FF1FB728FF1FB728FF1FB728FF1FEC
:10002000B728FF1FB728FF1FB728FF1FB728FF1FDC
:10003000B728FF1FB728FF1FB728FF1FB728FF1FCC
:10004000B728FF1FB728FF1FB728FF1FB728FF1FBC
:10040000FFFFFFFFFFFFFFFFFFFFFFFFFEFFFFFFFD
:1004100062B604F02FF9FEE72DE9F04FA1B0804657
:10042000002017461D4602910B900DF1440A6FF013
:1004300000490AE017F8011B0298C0470028029003
:1004400000F0A5820B98401C0B90387808B90B98E7
:100450009FE22528EED10020059006900790089095
:1004600009900A9001E040F0010017F8011F2029CF
:10047000F9D023290DD02B2904D02D2906D03029DD
:100480000AD00CE040F0020080B2EEE740F0040039
:10049000FAE740F00800F7E740F01000F4E72A29F7
:1004A0000ED12968296051F8042B2960002A0D9289
:1004B00004D5514240F004000D9180B27F1C11E040
:1004C00000210D9109E00D99494505D001EB81030B
:1004D00002EB430130390D917F1C3A78A2F13001D3
:1004E0000A29F0D339782E2903D04FF0FF310C912F
:1004F0001DE017F8011F2A2907D1296829607F1CF0
:1005000051F8042B29600C9211E000210C9109E0B4
:100510000C99494505D001EB810302EB43013039C9
:100520000C917F1C3A78A2F130010A29F0D3ADF882
:1005300038000FF6C020397800F06AFD08B117F8CE
:10054000010B8DF83A009DF83A00682802BF39780F
:100550006829622005D06C2804BF38786C2803D144
:1005600071208DF83A007F1C11A8049017F8014BF8
:10057000B4F1250023D02038022840F2BB80133884
:1005800000F0E0800B3800F04A81401E00F023812B
:10059000401E022840F2AE80001F00F01C81401F68
:1005A00079D0401E00F0CE80401E24D0C01E0BD05B
:1005B000801E00F0C780C01E00F0C48039E12520F5
:1005C0008DF8440001203DE12868286050F8046B54
:1005D000286003960C9C002C04D5304600F024FDC6
:1005E000044606E022460021304600F039FD00B105
:1005F000841B069427E1296829603C2451F8040BE8
:1006000029600021CDE9000111A80390DDE9000176
:10061000049E11B908B90C9AB2B10206120FA0EBF0
:1006200002123032D2B2631E3A2AA8BF2732000922
:1006300040EA017009099A5508BF00281C4603D0FA
:10064000039AA3199A42E8D3A0190390C4F13C017C
:100650000C980691814209DA401A08904FF6EF7122
:10066000BDF838000840ADF83800ECE0002840F153
:10067000EA809DF8380000F01400102840F0E38074
:100680000D98059A801A089A801A441A012CC0F213
:10069000DA800894D7E09DF83A0062281AD06828DA
:1006A00006D06A280CD06C281CD0712808D019E01C
:1006B0002868286050F8041B28600B980880C2E066
:1006C0002868286050F8042B28600B98C117C2E9ED
:1006D0000001B8E02868286050F8041B28600B98D7
:1006E0000870B0E02868286050F8041B28600B9858
:1006F0000860A8E02868C01D20F007022A60D2E93F
:10070000000108322A60CDE90001002902D50598D0
:100710002D210AE0BDF83800810702D505982B216C
:1007200003E0C00705D50598202100F80A10401CF9
:10073000059011A8059908180390214600A800F01B
:10074000E5F980E09DF83A006C280DD0712818BFBB
:100750006A2809D12868C01D20F007022A60D2E962
:10076000000108322A6005E02968296051F8040B6D
:1007700029600021CDE900019DF83A00682803D1E5
:10078000DDE9000180B20BE0622803D1DDE9000160
:10079000C0B205E0742818BF7A2804D1DDE9000151
:1007A0000021CDE900019DF8380000072ED5DDE9D4
:1007B0000001002908BF002828D044F02000782834
:1007C00024D10598302100F80A10401C411C0591E5
:1007D00000F80A401AE09DF83A00294600F0DCF8DB
:1007E000CDE90001002902DA05982D210AE0BDF8C3
:1007F0003800810702D505982B2103E0C00705D5F5
:100800000598202100F80A10401C059011A80599B0
:1008100008180390214600A800F0F5F813E0012025
:1008200005902868286050F8041B28608DF8441053
:1008300009E025208DF84400012005901CB18AF8BC
:100840000140022005900D980599401A0899401A18
:100850000699401A0999401A0799401A0A99441AA8
:100860009DF83800400710D420208DF84000002665
:1008700009E0012310AA00A9404600F0A3FB0028CC
:1008800040F08580761CA642F3DB059E0DF1440BFB
:100890000AE01BF8011B0298C0470028029076D09E
:1008A0000B98401C0B90761E002EF2D130208DF854
:1008B00040004FF0000B089E09E0012310AA00A998
:1008C000404600F07FFB002861D10BF1010BB345DE
:1008D000F3DB069EDDF80CB00AE01BF8011B029862
:1008E000C0470028029052D00B98401C0B90761EF7
:1008F000002EF2D130208DF840004FF0000B099E01
:1009000009E0012310AA00A9404600F05BFB002883
:100910003DD10BF1010BB345F3DB03980699079E1C
:1009200001EB000B09E01BF8011B0298C047029085
:1009300068B30B98401C0B90761E002EF3D130202C
:100940008DF840004FF0000B0A9E08E0012310AA2A
:1009500000A9404600F036FBC8B90BF1010BB345C6
:10096000F4DB9DF8380040077FF56FAD20208DF84F
:100970004000002600E0761CA642BFF666AD0123CB
:1009800010AA00A9404600F01DFB0028F3D04FF04C
:10099000FF3021B0BDE8F08F622826D068281DD036
:1009A0006A2808D06C2827D0712804D0742823D056
:1009B0007A280CD020E00868C01D20F007000860ED
:1009C000D0E90023083008601946104670470A68CD
:1009D0000A6052F8040B0A60002170470A680A6036
:1009E00052F8040B0A6000B20BE00A680A6052F881
:1009F000040B0A6040B204E00A680A6052F8040B73
:100A00000A60C11770472DE9FA4E05460A462F695C
:100A10006F2A08BF082405D041F02000782814BFB1
:100A20000A2410243C26D5E90001642A18BF692A4B
:100A300081468A4605D1002903DAD9F100096AEB1B
:100A40004A0ABAF1000F08BFB9F1000F0CD1286BA8
:100A500050B9082C36D195F83800000732D530202F
:100A60003B2687F83B002DE0E317484651462246D7
:100A700000F022FBA4FB0023A9EB02023032D2B229
:100A8000A6F1010B3A2A5E4603DB9DF80030513B8C
:100A90009A1881465FEA010A0BF8072008BFB9F1EE
:100AA000000F03D0E868F1198842DDD3082C09D182
:100AB00095F83800000705D5F05D302802D0761E85
:100AC0003020F055C6F13C00A861F119E960296BAE
:100AD000884208DA081A28624FF6EF71288F08401A
:100AE0002887BDE8F38E00290ED595F8381001F05F
:100AF0001401102908D1696B6A69891A2A6A891A4E
:100B00000E1A012EA8BF2E62BDE8F38E2DE9F34F19
:100B10008BB0D0E90089006B002801AF48BF0620E8
:100B200005D404BF41F02000672802D101200B99B1
:100B3000086340F2FF720B984168C1F30A5090427B
:100B400020D1080302BF0B98006800280AD10B9936
:100B5000032088619DF8300061381A2858D30FF2BD
:100B6000A84109E00B99032088619DF830006138A5
:100B70001A284AD30FF288410B98C068032200F06C
:100B800013FB00E1012807DA0B9800F048FB01286D
:100B900002DB00230026EDE00B9ADFF854B1526827
:100BA00040F2FE3161F31E520B994A6040F2FE3171
:100BB000461A404649460022002300F051FB38BF48
:100BC00089F0004936B247F297507043494990FB8B
:100BD000F1F636B2C6F10707012F92461BDBF80784
:100BE00007D552465B464046494600F051FB8046D9
:100BF00089465046594652465B467F1000F048FBF6
:100C0000002F82468B46EAD126E00FF2F031B3E79F
:100C10000FF2F031B0E77F420024374D12E0F807C1
:100C200007D552465B462046294600F031FB044674
:100C30000D465046594652465B4600F029FB7F1050
:100C400082468B46002FEAD14046494622462B4633
:100C500000F0F0FB804689469DF830000B99DFF8E4
:100C60009CB0096B40F02005662D0CBF06F10A0010
:100C700006204718142FA8BF132730208DF8040032
:100C80000DF10504012F3BDB4046494600F0FEFC18
:100C9000014604F1080204234FF00A0CB1FBFCFCEE
:100CA0000CEB8C04A1EB4401303102F8011C0A2149
:100CB000BCFBF1FE0EEB8E04ACEB440430345B1E47
:100CC000714602F8024DE7D1083F012F02F10804F6
:100CD000D8DB00F0F1FC02460B464046494600F0E6
:100CE000F9FC00225B4600F0D3FA80468946CBE748
:100CF00000002440A08601000000F03F84D7974107
:100D00000DF10500201A0DF1050702E0401E761EC8
:100D10007F1C39783029F9D0662D02D136B2711C8A
:100D200003E0652D0CBF012100210B9A126B8B187B
:100D30001BB29842B8BF03461BB219001AD48142B5
:100D400004DAC85D3528A8BF392000DA3020CA1976
:100D5000521E00E05B1E12F80159491E8542F9D06F
:100D6000392802D1C85D401CC855002902D57F1E14
:100D70005B1C761C36B29DF830100B9800961BB2A7
:100D80003A4600F003F80DB0BDE8F08F2DE9F047CA
:100D900086B006468A4690461D4600F078FD012D35
:100DA000406A376B90F8009002DA01250FF25C2858
:100DB0004AF02000BDF93840662808BF641C13D0F3
:100DC000672840F0888014F1040F73DBBC4271DAAD
:100DD00096F83800641C000702D4BD42B8BF2F4605
:100DE00024B23F1B48BF002724B2F068B169012C30
:100DF00021DA4A1C30230B54012F03DA96F83810FD
:100E0000090702D502F80090521CE742B8BF7C42A5
:100E100024B2E7196142AF42B2617162B8BF3D4688
:100E2000B3692DB2F5612A464146181800F0BCF9A5
:100E3000781BB062AFE00818A54216DA2A46414690
:100E400000F0B2F9B1696918601B012FB1617062DD
:100E500003DA96F83800000705D5F06801F800902D
:100E6000F069401CF061B76295E02246414600F00F
:100E70009BF9B06920182D1B012F03DA96F8381062
:100E8000090703D5F16800F80190401CB0612DB24C
:100E9000AF42B8BF3D46F068B3692DB22A4604EBB5
:100EA0000801181800F080F9B0692818B061781BA3
:100EB000706270E0BD4204DA96F83810090758BF36
:100EC0002F467F1E48BF0027BAF1670F0CBF4FF0B7
:100ED000650A4FF0450AB169F06818F8013B0B54F8
:100EE0004A1C012F05DA96F83810090758BFB2617D
:100EF00015D502F80090531C012FB3610FDB6D1E56
:100F00002DB2AF42B8BF3D462DB22A464146181811
:100F100000F04AF9B0692818B061781B7062F06877
:100F2000B1690918200081F800A004D42B20487072
:100F300001F1020804E02D224A7001F10208644226
:100F4000002502AF08E00A2200A800F0B9FC0198D1
:100F500007F8010B6D1C009C21B20129F3DA022D68
:100F600006DA4AF02000652804BF302008F8010B9B
:100F70004DB9302008F8010B07E06D1E02A8285C6F
:100F8000303008F8010B012DF7DAF068B169081864
:100F9000A8EB0000F06196F8380000F0140010286B
:100FA0000DD17069B1690818716A0818F1690818DB
:100FB000B16A0818716B8842BCBF081A306206B06B
:100FC000BDE8F087F8B504460D4616461F460020DA
:100FD00004E0E86A401CE8627F1E002047B116F872
:100FE000011BA868A0470028A860F2D14FF0FF308D
:100FF000F2BD0000686A6C747A4C00006E616E008D
:101000004E414E00696E6600494E46003000FE00BB
:101010000278C9B28A421AB11CBF10F8012FF9E751
:1010200018BF00207047FF0000F10103810704D0C2
:1010300010F8011B89B18107FAD10268B2F10131C0
:10104000914311F0803F04BF50F8042FF6E710F8E9
:10105000011B11B110F8011BFBE7C01A704700001B
:10106000C9B2830706D0521E22D310F8013B994221
:10107000F7D11FE0083A13D302F1040241EA01213B
:1010800041EA014150F8043B121F21BF4B40A3F13C
:10109000013C2CEA030C1CF0803FF3D0C9B2001FC6
:1010A000083210F8013B521E28BF91EA030FF8D80E
:1010B00018BF0120401E70471B4213D1094236D190
:1010C0002AB18446B0FBF2F002FB10C2704700F078
:1010D000FFBBFCD30022002370470B00020000215D
:1010E00000207047904271EB030CF6D370B5B1FA53
:1010F00081F4B3FA83F52C1BA340C4F1200532FA26
:1011000005F63343A2405FF00046E64002E05B088C
:101110005FEA3202841A71EB030524BF2046294698
:101120007641F4D302000B003000002170BD012A8B
:10113000CFD970B5140C20D0B1FA81F4B2FA82F58F
:10114000C4F120046419B4F12006D6D3B2405FF094
:101150000044F440002502E052085FEA3303C61A57
:1011600071EB020E24BF3046714664416D41F3D3EA
:1011700002000B002000290070BD0C46B1FBF2F10B
:1011800002FB11452D0445EA1045B5FBF2F402FBC4
:10119000145580B240EA0545B5FBF2F002FB10524F
:1011A00040EA044070BD000062B38B0708D0521EB5
:1011B00011F8013B00F8013B00F024808B07F6D1C9
:1011C000830740F0208000BF103A07D330B4B1E865
:1011D0003810103AA0E83810F9D230BC530724BFB9
:1011E000B1E80810A0E8081044BF51F8043B40F8EB
:1011F000043BD20724BF31F8022B20F8022B44BF56
:101200000B7803707047083A07D3B1E80810083A22
:1012100040F8043B40F804CBF7D25307E4E730B47E
:10122000436803F0004201211B031B0B436004BF12
:101230000368002B08D10DE00368DD0F45EA440484
:1012400044605B000360491E4468E302F4D5230355
:101250001B0B436043681A434260084630BC70472A
:101260004FF4001C1CEB410F94BF1CEB430F09E033
:1012700041EA030C50EA4C0C52EA0C0C03D299429E
:1012800008BF9042704714BF8B42824270470000F3
:10129000B0B581EA030C0CF0004C40F2FF7515EA82
:1012A00011541DBF15EA1357AC42AF4239E0E4199F
:1012B00023EA455343F48013C90241F0004141EA57
:1012C000505EC7021100A7FB020200284FF0000089
:1012D000EEFB01204FF00001E3FB072118BF42F0B5
:1012E0000102401800214941E3FB0E01A4F580648E
:1012F0000F0302D252004041494154F101046CDD18
:10130000470872F1004250F1000051EB0451A1F581
:1013100080115CBF41EA0C01B0BD4CEA05510020D0
:10132000B0BD05EA1357AC4214BFAF4241E050EAEA
:10133000410E1CBF52EA430E02E061460020B0BDE0
:1013400024423C441BD15FEA070EF6D0090302BFDA
:1013500001460020AEF1140EB1FA81F7AEEB07049E
:1013600001FA07FE0C37C7F1200100FA07F7C84061
:101370004EEA000E23EA455343F48013A2E733F00C
:101380000043B3FA83F704BFB2FA82FE77440B3FFF
:10139000E41BB7F1200E2FBF02FA0EF3BB40C7F1DA
:1013A000200E22FA0EFE38BF43EA0E03BA40641C38
:1013B00082E750EA410E14BF52EA430E6FF000017B
:1013C0004FF4001717EB430F8ABF194617EB410F75
:1013D000B5E74CEA05510020B0BDD4F10104B4F1E9
:1013E00020070FDAC4F12007520828BF42F001029B
:1013F00010FA07F501FA07F7E1BF2A43E040384346
:10140000E1400FE0352C98DCC7F1200452EA40029D
:1014100020FA07F218BF42F0010231FA07F0A140AA
:101420000A43002172F1004250F1000051EB0C011F
:10143000B0BD00002DE9F04140F2FF7581EA030CD8
:101440000CF0004C15EA11541DBF15EA1357AC42BD
:10145000AF42E9E0BC41C1F31301C3F31303801AA7
:10146000994143F4801304D2641E4000494180181E
:101470005941C90241EA5051B1FBF3F603FB161181
:10148000A2FB0675D7EBC020A94102D2761E8018B8
:101490005941C90241EA5051B1FBF3FE03FB1E1151
:1014A000A2FB0E75D7EBC020A94103D2AEF1010E0D
:1014B00080185941890241EA9051760546EA8E2EFC
:1014C000B1FBF3F603FB1611A2FB0675D7EB8020E8
:1014D000A94102D2761E80185941C90241EA5051F1
:1014E0004EEA060EB1FBF3F603FB1611A2FB0675DE
:1014F000D7EBC020A94102D2761E80185941C902FB
:1015000041EA5051B1FBF3F703FB1711A2FB07357A
:10151000D3EBC020A94167F100070CBF004247F0A0
:10152000010766F3D5274FEA1E31B80814F5806429
:1015300014DDBD0775F1004250EB0E5051EB045124
:1015400011F5801F5CBF41EA0C01BDE8F0814CF051
:101550007F6141F0E0410020BDE8F081BD076D08EA
:1015600040EA0E5041F48011D4F10104B4F1200698
:101570000ADAC4F120060200E04001FA06F3E14075
:101580001843B24015430EE0342C14DCC6F120049D
:1015900045EA40056D0820FA06F2154321FA06F0E7
:1015A000A1400D43002175F1004250F1000051EBC4
:1015B0000C01BDE8F08100205FEA0C01BDE8F0817C
:1015C000CFB992185B41B3FA83F704BFB2FA82F63F
:1015D000BF190B3FB7F120062FBF02FA06F3BB403D
:1015E000C7F1200622FA06F638BF3343BA401CB1D1
:1015F000E419641E2FE77F4231F00041B1FA81F413
:1016000004BFB0FA80F6A4190B3CB4F120062FBF3A
:1016100000FA06F1A140C4F1200620FA06F638BF10
:101620003143A0403C1B16E7AC421ABF05EA1357F2
:10163000AF4214E050EA41061CBF52EA4306BFE73E
:1016400050EA4107304661461CBF41EA0551BDE8FA
:10165000F08152EA430C08BFC143BDE8F08100208D
:101660004FF4001616EB410F98BF16EB430F08BF5F
:1016700016EB410F24BFC14305E016EB430F0CBF2F
:1016800061464CEA0551BDE8F0810000400D40EA9A
:10169000C120490080F00D8040F00040490DA1F5C7
:1016A0008061491C05D4D1F11F0154BFC840C01747
:1016B00070474FF000007047010000BF09D0B0FA3A
:1016C00080F18840C91CC1F58461090501EBD02176
:1016D00040057047F0B44FF0004591EA030F44BF56
:1016E0006B4000F001B900BF841A71EB030604D20D
:1016F0006E40001BB141121973414FF4001C1CEBEA
:10170000410F34BF7CEB430684E00C0DA4EB135671
:10171000362E7DDC012E43DC45EAC32343EA5253D7
:1017200012BFD20292025B08240545EAC12141EAB8
:101730005051D2EBC020994125D407D1B0FA80F6A0
:1017400010FA06F164D00020203608E0B1FA81F6E4
:10175000B140C6F1200220FA02F21143B0404FEA34
:10176000F474B4EB465434F001064FEA74040AD81A
:10177000D6F50016760D04F00044F04061FA06F24A
:101780005040F1404840C00A40EA415021F0004139
:1017900028BF5FEA500550F1000044EBD12137E04B
:1017A00045EAC323DB0A45EAC121C90AB6F120058F
:1017B0000EDD42EA0242120CC5F1200603FA06F6DB
:1017C000EB4042EA06056D42984161F100010DE0EF
:1017D00062FA06F5F240554063FA06FC82EA0C0212
:1017E000F3405A406D42904161EB030111F4801FB8
:1017F00005D1641E620502D06D004041494121F4CB
:101800008011430875F1004350F1000041EB045191
:10181000F0BC70471CEB410F15D223F0004352EA95
:1018200043060BD04FEA4C0CBCEB410F04D80C0D17
:10183000661E342EB7DDEBE7801A994150EA410667
:1018400008BF0021E4E708BF1CEB430F28BF6FF07F
:101850000001DDE780B5134800F0B0F80FF24C024C
:101860000FF244010160426241600FF24402826360
:1018700081600FF24402C160016141618161816256
:10188000C16201634163C2630164416401BD10B57B
:10189000044800F093F80446206808B9FFF7DAFF1F
:1018A000204610BD54ACFF1F000000002E000000B9
:1018B00066616C736500000074727565000000005D
:1018C00091FBF2F303FB1211C0E9003170470000F5
:1018D00070470000F0B44FF0004591EA030C44BF9C
:1018E0006B40FFF701BF00BF841A71EB030603D200
:1018F000001BB141121973414FF4001C1CEB410F46
:1019000034BF7CEB430443E00C0DA4EB1356352E9F
:1019100050DC45EAC323DB0A45EAC121C912B6F10E
:1019200020050DDD63FA05F6EB4086EA0305124259
:1019300018BF45F00105C01851F100010CD213E0A9
:1019400062FA06F5F2405540F3415A40B340F34085
:101950005A408018594107D349085FEA30005FEACE
:10196000350528BF45F0010501F58011420875F1E4
:10197000004250F1000041EB0451F0BC4FF4001C58
:101980001CEB410F38BF70470020090D0905704757
:101990001CEB410F10D252EA43060BD0BCEB410FB7
:1019A00005D80C0DAB43661E342EB5DD02E0AB430B
:1019B00080185941F0BC7047F0BC70477047000078
:1019C000000000410AD7A33D000000000000000015
:1019D0000000000000000000000000000000000007
:1019E0000000000000004E6F6E4D61736B61626C11
:1019F0006500000000486172644661756C74000007
:101A0000000000004D656D4D616E6167656D656E2E
:101A10007400004275734661756C7400000000002C
:101A2000000055736167654661756C7400000000C5
:101A300000000000000000000000000000000000A6
:101A40000000000000000000000000000000000096
:101A50000000000000000000000000000000000086
:101A6000000000000000000000000000005356438A
:101A7000616C6C00000000000000000044656275AD
:101A8000674D6F6E69746F72000000000000000007
:101A90000000000000000000000050656E64535616
:101AA0000000000000000000005379735469636B6C
:101AB0000000000000000000444D41300000000024
:101AC00000000000000000444D4131000000000013
:101AD000000000000000444D413200000000000002
:101AE0000000000000444D413300000000000000F1
:101AF00000000000444D41340000000000000000E0
:101B0000000000444D4135000000000000000000CE
:101B10000000444D413600000000000000000000BD
:101B200000444D41370000000000000000000000AC
:101B3000444D413800000000000000000000004457
:101B40004D41390000000000000000000000444D3D
:101B500041313000000000000000000000444D4111
:101B6000313100000000000000000000444D413110
:101B70003200000000000000000000444D413133FD
:101B800000000000000000000000444D413134001E
:101B9000000000000000000000444D41313500000D
:101BA0000000000000000000444D415F4572726F6C
:101BB000720000000000004D434D000000000000D6
:101BC0000000000000004654464C000000000000E9
:101BD0000000000000526561645F436F6C6C6973C4
:101BE000696F6E004C56445F4C5657000000000071
:101BF0000000004C4C5700000000000000000000F6
:101C000000005761746368646F67000000000000A3
:101C100000524E47000000000000000000000000DD
:101C2000493243300000000000000000000000497D
:101C3000324331000000000000000000000053505B
:101C4000493000000000000000000000005350492F
:101C50003100000000000000000000005350493235
:101C6000000000000000000000000043414E305F13
:101C70004F525F4D425F6275660043414E305F4296
:101C800075735F4F666600000043414E305F4572DA
:101C9000726F72000000000043414E305F54785F65
:101CA0005761726E696E6743414E305F52785F577D
:101CB00061726E696E6743414E305F57616B655F5D
:101CC00055700000005265736572766564353100A9
:101CD000000000005265736572766564353200005D
:101CE00000000043414E315F4F525F4D425F6275CD
:101CF000660043414E315F4275735F4F6666000078
:101D00000043414E315F4572726F72000000000067
:101D100043414E315F54785F5761726E696E67431D
:101D2000414E315F52785F5761726E696E67434111
:101D30004E315F57616B655F5570000000526573EF
:101D40006572766564353900000000005265736580
:101D50007276656436300000000000554152543000
:101D60005F52585F54580000000055415254305F94
:101D700045525200000000000055415254315F525C
:101D8000585F54580000000055415254315F45528D
:101D90005200000000000055415254325F52585F1B
:101DA00054580000000055415254325F45525200D1
:101DB000000000000055415254335F52585F5458A0
:101DC0000000000055415254335F4552520000005C
:101DD00000000055415254345F52585F545800007F
:101DE000000055415254345F45525200000000003B
:101DF0000055415254355F52585F5458000000005E
:101E000055415254355F45525200000000000041D8
:101E10004443300000000000000000000000414486
:101E200043310000000000000000000000434D505E
:101E3000300000000000000000000000434D503161
:101E40000000000000000000000000434D50320080
:101E50000000000000000000000046544D3000006B
:101E600000000000000000000046544D310000005A
:101E7000000000000000000046544D320000000049
:101E800000000000000000434D540000000000006E
:101E90000000000000005254430000000000000059
:101EA0000000000000526573657276656438330087
:101EB0000000000050495430000000000000000005
:101EC00000000050495431000000000000000000F4
:101ED00000005049543200000000000000000000E3
:101EE00000504954330000000000000000000000D2
:101EF0005044423000000000000000000000005587
:101F00005342300000000000000000000000555364
:101F100042444344000000000000000000454E45DC
:101F2000545F313538385F54696D6572454E45549C
:101F30005F5472616E736D69740000454E45545F65
:101F400052656365697665000000454E45545F45FE
:101F500072726F72000000000049325330000000BE
:101F6000000000000000000053444843000000004F
:101F70000000000000000044414330000000000069
:101F80000000000000004441433100000000000058
:101F90000000000000545349300000000000000021
:101FA000000000004D43470000000000000000005A
:101FB0000000004C5054696D657200000000000084
:101FC000000052657365727665643130320000003E
:101FD00000504F525441000000000000000000007B
:101FE000504F52544200000000000000000000501A
:101FF0004F52544300000000000000000000504F0A
:1020000052544400000000000000000000504F52F5
:102010005445000000000000000000005265736598
:102020007276656431303800000000526573657265
:102030007665643130390000000052657365727650
:102040006564313130000000005265736572766559
:102050006431313100000000526573657276656449
:10206000313132000000005265736572766564316B
:10207000313300000000526573657276656431315A
:102080003400000000526573657276656431313545
:102090000000000052657365727665643131360068
:1020A0000000005265736572766564313137000057
:1020B0000000526573657276656431313800000046
:1020C0000052657365727665643131390000000035
:1020D000008003400090034000800B4000F00F4060
:1020E00040F00F4080F00F40C0F00F4000F10F4073
:1020F000F0000A1D300018003200180160001818A6
:102100006400181A6E00181F780013187D00131A47
:102110008200131C8C000E1296000E15A0000E18E3
:10212000AA000E1BB4000E1EC8000C1CE1000B1E02
:10213000FA000A1F000109080090044000A00440B2
:1021400000B0044000C0044000D0044000A006409D
:1021500000B0064000C0064000D0064000A00E407F
:1021600000B00E406A6E6B6C676D4E4F113536379E
:10217000010000000D81110109030CD01240173F2E
:10218000185019031A783200A00A63E0ACFF650CFE
:102190006600670029282C3C7E0C7F16802A814E21
:1021A0008261836F847B8586868E879788A489AFBA
:1021B0008AC58BD78CE88D204A00491347084B14F9
:1021C0004C17460522992303A6049B002A009C2055
:1021D0009C20AB069E119F02320000000204010108
:1021E00004ACFF1F54ACFF1F04ACFF1F04ACFF1F67
:1021F00004ACFF1F6954FF1F5054FF1F0000000074
:1022000000000000000000000000000000000000CE
:1022100000000000000000000000000038B50400CD
:102220000D0064B2002C03D0022C66D049D380E0AC
:10223000DFF8D004006850F08070DFF8C814086040
:102240006DB2002D0BD0022D15D00ED3042D1ED053
:1022500017D3062D27D020D3072D2AD02FE04FF4F7
:102260008061412000F058FA2AE04FF440710420C8
:1022700000F052FA24E04FF44071052000F04CFACF
:102280001EE04FF44071062000F046FA18E04FF4CB
:102290004071072000F040FA12E04FF480616520A1
:1022A00000F03AFA0CE04FF48061662000F034FA56
:1022B00006E04FF48061672000F02EFA00E038E07D
:1022C00037E0DFF84004006850F00070DFF83414A5
:1022D00008606DB2002D02D0012D06D00BE04FF446
:1022E00040710C2000F018FA06E04FF440710D2008
:1022F00000F012FA00E01CE01BE0DFF80C040068BC
:1023000050F08070DFF8001408606DB2002D02D02C
:10231000012D06D00BE04FF44071322000F0FCF9A3
:1023200006E04FF440710B2000F0F6F900E000E009
:10233000FFE731BD2DE9F84F04000D0016001F0026
:1023400064B2002C0DD064B2012C02D064B2022C15
:1023500002D16DB2022D04DBFC21DFF8B00300F0E6
:1023600040FA290049B2200040B2FFF757FFDFF8DA
:10237000A00300684FF47A71484380465FEA184032
:10238000B0FBF6F08146002082461FFA89F94846E4
:1023900050FA0AF0012802DB1AF1010AF5E75FFAA8
:1023A0008AFABAF1080F05DB40F21711DFF85C0377
:1023B00000F017FA404630FA0AF0B0FBF6F081461A
:1023C00064B2002C03D0022C19D00CD323E01FFAE6
:1023D00089F919F1010000FB07F042F21071B0FB1E
:1023E000F1F0834617E01FFA89F919F1010000FBAB
:1023F00007F042F21071B0FBF1F083460BE01FFAD8
:1024000089F919F1010000FB07F042F21071B0FBED
:10241000F1F08346FFE7DFF8FC0264B250F82400D5
:102420006DB210EBC500DFF8EC1264B251F8241065
:102430006DB211EBC501C96831F00401C160DFF86C
:10244000D40264B250F824006DB210EBC50028210C
:10245000C1605FFA8AFA1AF0070050F00800DFF84E
:10246000B41264B251F8241008601FFA89F9DFF839
:10247000A40264B250F82400C0F808900020DFF8ED
:10248000941264B251F82410C864DFF8880264B270
:1024900050F824006DB210EBC5001FFA8BFBC0F89A
:1024A00010B00020DFF86C1264B251F824104860BC
:1024B000BDE8F18F2DE9F04104000D0016005FF03A
:1024C000000864B2002C0ED064B2012C02D064B2B9
:1024D000022C02D16DB2022D05DB4FF4A971DFF899
:1024E0002C0200F07EF964B2002C03D0022C17D02D
:1024F0000BD320E042F21170864205D340F257110F
:10250000DFF8080200F06DF915E042F21170864222
:1025100005D340F25B11DFF8F40100F062F90AE044
:1025200042F21170864205D340F25F11DFF8DC0100
:1025300000F057F9FFE7DFF8DC0164B250F824003F
:1025400080688046B8F1000FF5D064B2002C03D04B
:10255000022C15D00AD31DE018F1010000FB06F093
:1025600042F21071B0FBF1F0070013E018F1010026
:1025700000FB06F042F21071B0FBF1F0070009E039
:1025800018F1010000FB06F042F21071B0FBF1F00F
:102590000700FFE7DFF87C0164B250F824006DB259
:1025A00010EBC5000761BDE8F08110B5040064B20E
:1025B000012C07D064B2022C04D040F21D215348F4
:1025C00000F00FF964B22000012802D0022811D0D7
:1025D00021E04C48006850F000704A4908604FF410
:1025E000E0610C2000F098F84FF4E0610D2000F05D
:1025F00093F815E04448006850F080704249086044
:102600004FF4C0610A2000F087F84FF4C0610B203E
:1026100000F082F804E040F265213C4800F0E1F867
:102620003C4864B250F82400406D50F00400394931
:1026300064B251F824104865364864B250F824005A
:10264000D0F8800050F00800324964B251F82410EC
:10265000C1F8800000202F4964B251F82410C864EA
:102660004FF6FF702B4964B251F824108860294856
:1026700064B250F82400D0F8800050F001002549E1
:1026800064B251F82410C1F88000224864B250F8B6
:102690002400406D50F001001E4964B251F824102E
:1026A000486500201B4964B251F82410486010BDF1
:1026B00038B5040064B2012C07D064B2022C04D0F7
:1026C00040F28221114800F08CF8124864B250F8B0
:1026D000240040680500280000B232BD10B5040097
:1026E00064B2012C07D064B2022C04D04FF42471E0
:1026F000064800F076F80020064964B251F824102C
:10270000486010BD3C800440308004406848FF1F92
:10271000FCABFF1F2053FF1F10B4294A12684FF46F
:102720000073C0B24409A3401A43254B1A60254ADE
:10273000C0B2431152F82320012310F01F04A3401C
:10274000C2F8A0301F4AC0B2431152F82320C0B2D1
:1027500010F01F0342F8231010BC704710B4184A41
:1027600012684FF40073C0B24409A3401A43144BDB
:102770001A60144AC0B2431152F82320012310F00A
:102780001F04A340C2F8A03031F4E0610D4AC0B28A
:10279000431152F82320C0B210F01F0352F8232037
:1027A00012F4E0621143074AC0B2431152F82320E9
:1027B000C0B210F01F0342F8231010BC7047000095
:1027C000388004408853FF1FBFF34F8F464800688E
:1027D00010F4E0604549084343490860BFF34F8F58
:1027E000FEE738B504000D00002000F08DF82A0047
:1027F00021003F4800F0B0F8002000F0A2F84FF4AC
:102800007A7000F0EBF8F2E738B504000D00210013
:1028100049B2032000F0F5F9200032BD10B50024C4
:10282000042000F019FA042000F04CFA002841D1ED
:10283000002000F069F8042000F044FA012801D1DA
:1028400001200400002000F07CF82A4800F084F801
:102850004FF4FA7000F0C2F8E4B2012CEBD104207E
:1028600000F030FA0028E6D1042000F02BFA00280E
:1028700006D1002000F065F8642000F0AFF8F3E71F
:10288000042000F01FFA012806D1002000F059F8BA
:10289000322000F0A3F8F3E7174800F05DF802F0EB
:1028A000F5FD642000F09AF8002002F003FEFFF727
:1028B0008BFFC0E710BD10B510480468012000F080
:1028C00023F8012000F03DF80D48E4B20F2101FB90
:1028D0000402E4B221000B4800F03EF84FF47A7095
:1028E00000F07CF8EDE700000CED00E00400FA05D4
:1028F000704AFF1F544BFF1FA44AFF1F04ED00E066
:10290000184CFF1F0C4AFF1F10B5040064B2042CC2
:1029100007DA012201210F4864B2205C00F0EAF9D5
:102920000EE0042004002000441E40B2002807D01E
:1029300001220121074864B2205C00F0DBF9F2E7D4
:1029400010BD10B50400034864B2205C00F029FA01
:1029500010BD0000BC53FF1F0EB400B582B003A928
:102960000091024600AB0121034878440A30FDF78C
:1029700053FD06BC5DF810FBB921000030B4134CC8
:10298000246854F08074114D2C60114C246854F06C
:1029900001040F4D2C600F4C246821000E4C24685C
:1029A0004FF47A7594FBF5F404FB00F423005C18F3
:1029B00022008A4203D2074C2468A242FBD3054C72
:1029C00024689442FBD330BC70470000FCED00E06B
:1029D000001000E0041000E0F4ABFF1F10B504008D
:1029E0002000441E002804D04FF47A70FFF7C6FF81
:1029F000F6E710BD2DE9F84304000D0064B2002C89
:102A000008D0022C2CD018D3042C4FD03BD3052C4B
:102A10005FD071E0DFF82802006850F48060DFF8D2
:102A2000201208604FF440716620FFF775FE4FF4E6
:102A300040716720FFF770FE5EE0DFF80402006877
:102A400050F40060DFF8F81108604FF44071432043
:102A5000FFF762FE4FF440714420FFF75DFE4BE04C
:102A6000DFF8DC01006850F48050DFF8D411086012
:102A70004FF440716320FFF74FFE4FF44071622026
:102A8000FFF74AFE38E0DFF8B801006850F4005064
:102A9000DFF8AC1108604FF440715020FFF73CFEA6
:102AA0004FF440715120FFF737FE25E0DFF8940125
:102AB000006850F48060DFF88C1108604FF44071BA
:102AC0004E20FFF729FE4FF440714F20FFF724FE00
:102AD00012E0DFF87001006850F40060DFF8641164
:102AE00008604FF440718920FFF716FE4FF44071E3
:102AF0008820FFF711FEFFE7DFF84C0164B250F8C1
:102B00002400C07810F0F300DFF83C1164B251F8F3
:102B10002410C8704C4864B250F8240080784A49A8
:102B200064B251F82410887064B2002C02D064B2F0
:102B3000012C06D1454800684FF47A71484381461C
:102B400005E0434800684FF47A7148438146280104
:102B5000B9FBF0F00600B6B2B6F5005F02DB41F655
:102B6000FF700600B9FBF5F0B6B2B0EB0610070037
:102B7000BFB2202F04DB40F203113648FFF731FECD
:102B8000314864B250F82400007810F0E00080462C
:102B9000C6F3042050EA08002B4964B251F824100F
:102BA0000870294864B250F824004670264864B280
:102BB00050F82400807A10F0E000804617F01F00E3
:102BC00050EA0800204964B251F8241088721E4867
:102BD00064B250F82400007C50F088001A4964B2B6
:102BE00051F824100874184864B250F82400C078D2
:102BF00050F00C00144964B251F82410C870BDE8BC
:102C0000F183114A40B252F8202012791206F8D509
:102C10000D4A40B252F82020D171704770B50400BF
:102C20000D0016003000461E002808D095F900104F
:102C300049B2200040B2FFF7E4FF6D1CF2E770BD1F
:102C400034800440288004409C53FF1FF4ABFF1FD6
:102C5000FCABFF1F4049FF1F10B5040064B2082CF5
:102C60000DDA00220021224864B2205C00F042F814
:102C700003211F4864B2205CFFF770FD14E00820B8
:102C800004002000441E40B200280DD00022002184
:102C9000174864B2205C00F02DF80321144864B298
:102CA000205CFFF75BFDECE710BD10B50400104899
:102CB00064B2205C00F092F8002801D1002000E00E
:102CC000012010BD10B50400200040B2FFF7EDFF59
:102CD00000280AD10A20FFF781FE200040B2FFF74A
:102CE000E4FF002801D1002000E0012010BD000019
:102CF000B453FF1F70B504000D0016004FF480712F
:102D00002000C0B2FFF708FD6DB2002D11D143487D
:102D1000E4B2611150F821004049E4B2621151F867
:102D200022104969012214F01F039A409143416126
:102D300036E03A48E4B2611150F821003749E4B274
:102D4000621151F822104969012214F01F039A40C0
:102D500011434161F6B2002E11D13048E4B2611145
:102D600050F821000068012114F01F0291408843AF
:102D70002A49E4B2621151F82210086010E0274895
:102D8000E4B2611150F821000068012114F01F0223
:102D9000914008432149E4B2621151F822100860C1
:102DA00070BD10B504001D48E4B2611150F8210057
:102DB000406914F01F010200CA40D00703D47B21F0
:102DC0001748FFF70EFD1548E4B2611150F82100D5
:102DD000012114F01F029140C16010BD10B5040024
:102DE0000E48E4B2611150F82100406914F01F014F
:102DF0000200CA40D00703D58C210948FFF7F1FC37
:102E00000648E4B2611150F82100006914F01F0176
:102E10000200CA4012F0010010BD00002C53FF1F39
:102E2000B048FF1FDFF8941340B231F8201040B2D1
:102E30000128C0F2698140B2112880F26581002228
:102E4000DFF87C331A7089B2312904DA0022DFF806
:102E500070335A7076E089B2612904DA0122DFF812
:102E600060335A706EE089B2912904DA0222DFF8E9
:102E700050335A7066E089B2C12904DA0322DFF8C0
:102E800040335A705EE089B2F12904DA0422DFF897
:102E900030335A7056E089B2B1F5907F04DC0522D8
:102EA000DFF81C335A704DE089B2B1F5A87F04DC1D
:102EB0000622DFF80C335A7044E089B2B1F5C07FC6
:102EC00004DC0722DFF8F8325A703BE089B2B1F532
:102ED000D87F04DC0822DFF8E8325A7032E089B289
:102EE000B1F5F07F03DC0922B54B5A702AE089B2B4
:102EF000B1F5047F03DC0A22B14B5A7022E089B29B
:102F0000B1F5107F03DC0B22AD4B5A701AE089B289
:102F1000B1F51C7F03DC0C22A94B5A7012E089B278
:102F2000B1F5287F03DC0D22A54B5A700AE089B267
:102F3000B1F5347F03DC0E22A14B5A7002E00F2260
:102F40009F4B5A7089B21A2903DA00229C4B9A705F
:102F500069E089B2332903DA0122994B9A7062E061
:102F600089B24C2903DA0222954B9A705BE089B250
:102F7000652903DA0322924B9A7054E089B27E29C4
:102F800003DA04228E4B9A704DE089B2972903DA56
:102F900005228B4B9A7046E089B2B02903DA0622EB
:102FA000874B9A703FE089B2C92903DA0722844B24
:102FB0009A7038E089B2E22903DA0822804B9A70CD
:102FC00031E089B2FB2903DA09227D4B9A702AE0AD
:102FD00089B2B1F58A7F03DA0A22794B9A7022E02E
:102FE00089B2B1F5967F03DC0B22754B9A701AE01B
:102FF00089B2B1F5A37F03DA0C22714B9A7012E00B
:1030000089B2B1F5AF7F03DC0D226D4B9A700AE0F7
:1030100089B2B1F5BC7F03DA0E22694B9A7002E0E7
:103020000F22674B9A7089B21A2903DA0022644B87
:10303000DA7069E089B2332903DA0122604BDA7071
:1030400062E089B24C2903DA02225D4BDA705BE060
:1030500089B2652903DA0322594BDA7054E089B248
:103060007E2903DA0422564BDA704DE089B29729A3
:1030700003DA0522524BDA7046E089B2B02903DA4E
:1030800006224F4BDA703FE089B2C92903DA0722E2
:103090004B4BDA7038E089B2E22903DA0822484B58
:1030A000DA7031E089B2FB2903DA0922444BDA7085
:1030B0002AE089B2B1F58A7F03DA0A22404BDA703E
:1030C00022E089B2B1F5967F03DC0B223C4BDA702B
:1030D0001AE089B2B1F5A37F03DA0C22384BDA701B
:1030E00012E089B2B1F5AF7F03DC0D22344BDA7008
:1030F0000AE089B2B1F5BC7F03DA0E22304BDA70F8
:1031000002E00F222E4BDA70704710B50400200049
:1031100040B2FFF787FE2B48007810F0FD002949E8
:1031200008702848007850F0100026490870B82030
:103130002549087025480078C006FBD4234800784C
:10314000C0F38100C0B20228F8D11D48C3781C48E2
:1031500082781B4841781A48007802F037FA1748FD
:1031600064B210EB8400807810F01F0018490870DA
:10317000124864B210EB8400C07810F01F0050F0C9
:10318000400014490870114800788006FBD50F48AC
:1031900000784006FBD50C48007810F03F000A4943
:1031A00008700A480078C0F38100C0B20328F8D143
:1031B000024864B230F82400C0B210BD4053FF1F73
:1031C0008453FF1F01400640004006400640064071
:1031D000044006400540064001B4BDF80000002848
:1031E00005D0BDF80000401EADF80000F5E701B0C5
:1031F000704780B5012201211A20FFF77BFD0122D3
:1032000001211920FFF776FD23211A20FFF7A6FAE6
:1032100023211920FFF7A2FA01BD80B501207A49C8
:1032200008600120794908604FF4C870FFF7D4FFA7
:1032300000207749086077480068002804D1012001
:1032400073490860002016E00120714908600020E1
:103250006D4908604FF4C870FFF7BEFF00206B494E
:1032600008606C480068002804D0012068490860A4
:10327000002000E0012002BD80B500206349086005
:103280000020614908604FF4C870FFF7A5FF0120D6
:103290005E4908604FF4C870FFF79EFF01205A494D
:1032A00008604FF4C870FFF797FF01BD80B500209C
:1032B000564908604FF4C870FFF78EFF002052494E
:1032C00008604FF4C870FFF787FF01204F4908607E
:1032D0004FF4C870FFF780FF00204C4908604FF49E
:1032E000C870FFF779FF01BD80B50020474908602D
:1032F0004FF4C870FFF770FF0120434908604FF496
:10330000C870FFF769FF0120404908604FF4C8709A
:10331000FFF762FF00203D4908604FF4C870FFF7D7
:103320005BFF01BD80B500203849086000203849A6
:1033300008604FF4C870FFF74FFF01203349086061
:103340004FF4C870FFF748FF32480068002807D0E4
:1033500001202F49086000202C490860002006E069
:1033600001202B490860002028490860012002BD87
:1033700038B5050008242000441EC0B2002818D02B
:10338000280603D501202049086002E000201E49DC
:1033900008606D004FF4C870FFF71EFF01201B4945
:1033A00008604FF4C870FFF717FF00201749086046
:1033B000E1E731BD38B50824002500201449086034
:1033C0002000441EC0B2002815D06D0000200F4917
:1033D00008604FF4C870FFF7FFFE01200B4908603A
:1033E0004FF4C870FFF7F8FE0A4800680028E7D0DD
:1033F00055F00105E4E70120054908600020034974
:103400000860EDB2280032BD6400FE436800FE4350
:10341000E402FE436402FE4370B504000D00002682
:103420002900C9B2200080B200F00AF8002805D1B6
:10343000761CF6B2142EF3D1002000E0012070BDFE
:1034400038B504000D00FFF7E8FE002801D1002088
:1034500019E04220FFF78CFFFFF764FF002803D13B
:10346000FFF70AFF00200EE02000C0B2FFF780FF48
:10347000FFF758FF2800C0B2FFF77AFFFFF752FFAF
:10348000FFF7FAFE012032BDF8B504000D0016006A
:1034900000273200D2B2290089B2200000F00AF8D9
:1034A000002805D17F1CFFB21E2FF2D1002000E0C2
:1034B0000120F2BD70B504000D001600FFF7ADFE4F
:1034C000002801D1002037E04220FFF751FFFFF72D
:1034D00029FF002803D1FFF7CFFE00202CE03000A9
:1034E000C0B2FFF745FFFFF71DFFFFF7C5FEFFF76F
:1034F00094FE002801D100201EE04320FFF738FF92
:10350000FFF710FF002803D1FFF7B6FE002013E0FD
:10351000ADB2002D0DD0FFF74DFF2070ADB2012DE3
:1035200002D1FFF7E1FE01E0FFF7C0FE641C6D1E53
:10353000EEE7FFF7A1FE012070BD0000012110F0B1
:103540001F029140A04A40B2430942F8231070473D
:1035500080B59E4800F072F90FF24511672000F027
:103560006EFA0FF26111102000F069FA0FF25D118E
:10357000542000F064FA00F079FA0120FFF715F802
:1035800003210C20FFF7EAF803210D20FFF7E6F8EE
:103590008F480068962101FB00F1002000F0CCFA72
:1035A0004FF4E163B92200210020FEF7C3FE00239F
:1035B00042F2107200210220FEF7BCFE4420FFF709
:1035C000BDFF00F09DF94FF416628049814800F07C
:1035D0001FF8804800F0EEFA00F0E4FB7E49086036
:1035E0004FF496417B4800F001F8EAE738B5040053
:1035F0000D007A4800788DF800002A002100032091
:10360000FFF70CFB012200A90320FFF707FB31BDE8
:1036100038B4734B1B88ADF8003000231400621ED1
:10362000002C3AD00C782300491C00ACDBB2DD1131
:103630002C5D0470401C00ACC3F38015EDB22C5D12
:103640000470401C00ACC3F34015EDB22C5D047057
:10365000401C00ACC3F30015EDB22C5D0470401C9F
:1036600000ACC3F3C005EDB22C5D0470401C00AC8F
:10367000C3F38005EDB22C5D0470401C00ACC3F3B5
:103680004005EDB22C5D0470401C00ACDBB213F0C1
:1036900001052C5D0470401CC0E731BC7047000080
:1036A00038B500244F4805685FF0FF304D49086089
:1036B0001D2004002800E040C00701D500F0F4F808
:1036C00031BD000080B500F011F901BD2DE9F041D8
:1036D0000120FEF7EDFF804643480068434900F0B3
:1036E000BFFB58D20FFA88F8404600F0CBFB00F041
:1036F000D9F9060000F0D3F9070038003C4900F082
:10370000AFFB04D238003B4900F0D4FB39D9380074
:10371000394900F0A5FB0CD23800384900F0CAFB4B
:1037200007D831480068310000F0D6FB2E49086008
:1037300027E03800324900F093FB0CD238003149C1
:1037400000F0B8FB07D828480068310000F0C4FB3F
:103750002549086015E02448006800F0FFFB0400DC
:103760000D00300000F0FAFB5FF03332264BFDF71E
:103770008FFD22002B00FEF7ADF800F017FC1A4970
:1037800008601948006800F059FC0200002102207E
:10379000FEF790FE0CE0144800681C4900F08AFB1C
:1037A00006D8002342F2107200210220FEF7C2FD6B
:1037B0000120FEF793FF1648006850F001001449FD
:1037C0000860BDE8F081000000E100E06C57FF1FD9
:1037D000FCABFF1FCC60FF1FCCABFF1F2610FF1FF1
:1037E0000E10FF1FA0900440D0ABFF1F01401C45EE
:1037F000295C0F3D285C0FBD00004842FFFF47C217
:1038000000004843FFFF47C33333FB3F018022459D
:103810000C710340012110F01F0291406F4A40B229
:10382000430942F823107047012110F01F02914014
:103830006B4A40B2430942F82310704710B50400A8
:103840006848046000F07DF80028FBD000F002F822
:10385000002010BDE0B5012002904FF416600190E9
:10386000002000901B235F4802685F49002000F0A1
:1038700035FC5E480068400840005C4908605720FD
:10388000FFF7D2FF5A48006850F00100584908601D
:103890000020FFF7BFFF57491B20FEF73DFF5649A9
:1038A0001D20FEF739FF07BD80B5544890F9000090
:1038B000042814D10320514908705720FFF7B4FFA2
:1038C0004A48006850F00100484908605FF0006015
:1038D0004B490860434800684A49086005E05720A2
:1038E000FFF7A2FF02204549087001BD01204349AE
:1038F00008703F48006850F001003D49086070477B
:1039000080B504203D4908705FF0FF303C490860F5
:103910005720FFF77FFF394890F9000001280FD0AA
:10392000364890F900000228F5D104203349087088
:103930005FF0FF30324908605720FFF76BFFEAE77E
:1039400001BD10B582B0002400208DF80000FFF703
:1039500050FC80211220FFF75FFD002804D12A4887
:10396000FEF7FAFF002036E03220FFF737F80B228F
:10397000012100A8FFF788FD002804D12348FEF7A5
:10398000EBFF002027E09DF80000212822D1002035
:1039900004001F480078A4B280B2844218D21D48A7
:1039A000A4B210EB440041781A48A4B210F81400F5
:1039B00080B2FFF731FD002808D11648A4B210F8F4
:1039C00014101548FEF7C8FF002004E0641CE0E76F
:1039D000012000E0002016BD0000000000E100E032
:1039E00080E100E000ACFF1F50F00F400C80004071
:1039F000248000400301020013010900C053FF1F8F
:103A0000A090044010900040004BFF1F684BFF1F28
:103A10002854FF1FC453FF1F184BFF1F10B504008D
:103A20004FF4007094FBF0F101FB1041002903D02A
:103A30001E210B48FEF7D5FE0A48046010BD38B5BC
:103A400004000D00074800680749884203D0302170
:103A50000348FEF7C6FE044864B240F8245031BD66
:103A60008849FF1F08ED00E00000FF1F2D482E4988
:103A7000086000202C49486000202B498860002005
:103A80002949086100202849C8602848264948611A
:103A900027482549886127482349C861704722483B
:103AA0008068704738B504001F4844601E480068AD
:103AB0001D49496800F026FC1B4988601A48806847
:103AC0001949C96800F01EFC1749496900F08EFCCD
:103AD0000500154881691448806800F087FC2900BA
:103AE00000F0FAF905001048C1685FF0804000F06E
:103AF0007DFC01000C48806800F004FC0A4909695B
:103B000000F0EAF90849C96900F070FC290000F0EA
:103B1000E3F90549C968044A116103498968024A01
:103B2000D16032BD0000FA44D4ABFF1FCDCC4C3E77
:103B30008FC2753CB81E053E38B504000D00002D3F
:103B400003D124211748FEF74CFE1748006850F4B3
:103B5000000015490860002014490860681E1449D7
:103B600064B222015050124864B210EB0410C068D5
:103B700050F001000E4964B211EB0411C8600C480A
:103B800064B210EB0410806840084000084964B239
:103B900011EB041188600320054964B211EB041194
:103BA000886031BDF848FF1F3C800440007003402E
:103BB000007103402DE9F043002600275FF07808EC
:103BC000C4465FFA8CFCBCF1020FC0F2E9805FF0E2
:103BD0005008C6465FFA8EFEBEF1020F28DB5FFA80
:103BE0008CFC5FF0A0085FFA8EFE08FB0CE818EB77
:103BF000000818F8A18CB8F1FE0F12D15FFA8CFC06
:103C00005FF0A0085FFA8EFE08FB0CE818EB0008D6
:103C100018F8A28CB8F1000F03D171460A00761C87
:103C200006E071465FF000084646BEF1010ED1E79E
:103C30005FF05108C6465FFA8EFEBEF1A00F28DA8B
:103C40005FFA8CFC5FF0A0085FFA8EFE08FB0CE8C0
:103C500018EB000818F8A18CB8F1FE0F12D15FFA2A
:103C60008CFC5FF0A0085FFA8EFE08FB0CE818EBF6
:103C7000000818F8A08CB8F1000F03D173461C009F
:103C80007F1C06E073465FF0000847461EF1010EF8
:103C9000D1E7F6B2012E20D1FFB2012F1DD1DBB248
:103CA000C9B2B3EB0108B8F10A0F69DBDBB2C9B2E4
:103CB000B3EB0108B8F1A10F62DADBB253FA81F875
:103CC0005FF0020998FBF9F84546EDB2DFF878811C
:103CD0005FFA8CFC28F81C5052E0F6B2002E16D188
:103CE000FFB2012F13D1DBB20A2B49DBDBB2A12BD0
:103CF00046DADBB25FF0020893FBF8F84546EDB216
:103D0000DFF844815FFA8CFC28F81C5038E0F6B2EA
:103D1000012E1ED1FFB2002F1BD1C9B2D1F1A008D4
:103D2000B8F10A0F2CDBC9B2D1F1A008B8F1A10F8C
:103D300026DAC9B211F1A0085FF0020998FBF9F880
:103D40004546EDB2DFF800815FFA8CFC28F81C5084
:103D500016E0F6B2002E13D1FFB2002F10D11100E1
:103D60002300DBB253FA81F85FF0020998FBF9F8FF
:103D70004546EDB2DFF8D0805FFA8CFC28F81C5085
:103D80005FFA8CFC5FF0A008EDB208FB0C5818EB52
:103D900000085FF0000908F8A19CBCF1010C10E7D5
:103DA000BDE8F083F8B500256E200600472E06DB3F
:103DB000254830F8160050384519761EF6E72820B9
:103DC00095FBF0F0214908602048006800F05AF89F
:103DD0001F49096800F00AFB07001C4800681D49DC
:103DE0000968401A00F04EF81B49096800F0FEFA15
:103DF000390000F071F800F021F9040014F5E164D5
:103E0000124800681349086040F6CB00844202DB88
:103E100040F6CA00040040F24650844202DA40F202
:103E20004650040009480068022807DA074800687D
:103E300010F1010F02DB4FF4E16004000748046059
:103E400002480068F2BD00001C56FF1F6457FF1FA8
:103E5000104CFF1F6857FF1F144CFF1F6057FF1FB8
:103E60004FF0807C1CEB400F94BF1CEB410F05E032
:103E700040EA010C5FEA4C0C01D28842704718BF3F
:103E800081427047002840F10780F446404200F02C
:103E900003F850F0004060470AD0B0FA80F1884043
:103EA000D1F19D01C905020672F1004241EB1020DB
:103EB000704700004FF0807C1CEB400F94BF1CEB60
:103EC000410F05E040EA010C5FEA4C0C01D281424F
:103ED000704718BF8842704790EA010F44BF81F0D5
:103EE000004100F017BA00BF421A3CBF801A89187F
:103EF0004FF0004CC0F3C752FF2A24D0C1F3C75380
:103F000013B3D21AD2F1190327DD4CEA01214CFA7E
:103F100003F321EA0303D140C20D4CEA002040180C
:103F200034BF20EA0C004CEA5000D20553EA00638B
:103F300073EB0C0C52EB1020420012F1807F38BF63
:103F40007047C00DC0057047490212BF9A4200EB8E
:103F50005120F8E7D2F11703D9D570475FF0FF0C75
:103F60001CEAD05114BF614506E0C110400721F0A2
:103F7000E04101F16051704779B900F00041000261
:103F80000AD0B0FA80FC00FA0CF001F16051A1EB0C
:103F90000C5101EBD0214005704741020CBF40F4A9
:103FA000E0016FF000010020704700004FEAF17C53
:103FB000BCF1E04C2CBFBCF5001F11E05FEA4C0CDB
:103FC00034BFBCF17F5F2EE05FEA9C0C4FEA0C1C13
:103FD0004FEA3C0CC10071F100414CEB507070474E
:103FE000C90241EA5051C00218BF41F0010141F03D
:103FF00000414FEA6C50C0F10900212810D240EA7C
:10400000CC7CCCF1200C11FA0CF070F10040CCF11A
:10401000200C21FA0CF00CF0004C40EB0C00704727
:104020004FEACC707047490011F5001F04D84FEAE1
:10403000CC10FF30C0057047C81770474100090E0B
:104040007F3915D4D1F11F0114D4400007D2C0012B
:1040500040F00040C84048BF6FF000407047C001CA
:1040600040F00040C8404CBF4FF000404042704715
:104070000020704700424FF0004058BFC0437047D7
:104080002DE9F84380460C005FEA981010F0070015
:10409000C0B25FEA40194046103810F03F00C0B28D
:1040A000C000050015EB09000700E4B217EBC400DF
:1040B000401E0600F6B2FFB2BE420DD30022002120
:1040C0003800C0B2FEF716FE4FF481713800C0B25E
:1040D000FEF722FB7F1CEDE7BDE8F1832DE9F84FE9
:1040E00004000D0016001F009DF92880DDF82C90BB
:1040F000DDF830A04FFA88F8B8F1000F02D15FF078
:10410000010B11E04FFA88F8B8F1010F02D15FF00E
:10411000020B09E04FFA88F8B8F1020F02D15FF004
:10412000040B01E05FF0100B4FFA88F8B8F1000FB4
:1041300005D16748854202D36648A84221D24FFA8A
:1041400088F8B8F1010F09D16148854206D3624869
:10415000A84203D315F00300032812D14FFA88F8C0
:10416000B8F1020F09D15A48854206D35B48A842EC
:1041700003D315F00300002803D061215848FEF74F
:1041800030FBB9F5004F03D363215548FEF729FBF7
:104190005448006850F002005249086052480068D4
:1041A00050F0020050490860504864B261010D505F
:1041B00064B2600100F1804010F5104006610020FB
:1041C00064B2610101F1804111F5104188805FFA0C
:1041D0008BFB64B2600100F1804010F51040A0F844
:1041E00014B04FFA88F85FEA082010F4E0604FFA44
:1041F00088F818F00701084364B2610101F18041B9
:1042000011F51041C88048464004400C64B2610179
:1042100001F1804111F51041C88248464004400C2C
:1042200064B2610101F1804111F51041C883304849
:10423000006830F080002E4908605FFA8BFB64B2A2
:10424000600100F1804010F51040C0F808B0002077
:1042500064B2610101F1804111F51041C8605FEA6B
:10426000CA7002D4D9F1000000E0002064B26101FC
:1042700001F1804111F5104188614CF20A0064B2ED
:10428000610101F1804111F510418883FFB2780985
:10429000313050F08000174964B26054164938003C
:1042A000C0B2FEF739FA5946C9B22800FFF7E8FE56
:1042B000124800680121A140884310490860104855
:1042C00000680121A14008430D490860BDE8F18F55
:1042D00010F00F4013F10F4012F10F4010F10F409A
:1042E000D847FF1F408004403C80044000900040BD
:1042F0000080004000100240000101000C800040DE
:104300002480004090EA010F44BF81F00041FFF794
:10431000EBBD00BF431A4FF000423EBF5340C01AEE
:10432000C91800BFD3095FEAD05C13EB400F34BF5C
:10433000B3EB410F40E07CEBD1530CD342EA0121B7
:1043400022D8D1EB402009D3400A28BF5FEA5001B0
:1043500040EBCC507047401A15D04002B0FA80F2C2
:10436000521C9040400A4FEA3C23B3EB026384BFE7
:1043700000EB730007E040F400001A16DB07C2F1FF
:104380000102D04018437047182BFCDC31FA03F2CD
:1043900002FA03F3591A38BF42F00102D2EB40206F
:1043A0003CBF4000ACF1010C5FEACC5CC20572F18D
:1043B00000414CEB5020704713EB400F0FD24B00E5
:1043C00009D0ACEBD153022B03DB4902172BDDDD07
:1043D00070479143401A4300D5D10020704713EB3A
:1043E000410FD0D36FF0000070470000FF2212EAA7
:1043F000D05C1DBF12EAD153944593422BE09C44FC
:10440000D30780EA01021A4043EA002043EA01216F
:10441000A1FB0030410038BF40007CF17F010BDB85
:10442000FE294ADA5B0842EAC15153EA006373F19C
:10443000004C51EB10207047D1F1080CDCF1200149
:104440002FDB5B0810FA01F10B4373F1004120FAF6
:104450000CF05041704794451CBF02EAD15393427F
:1044600080EA010202F000421DD0400019D049004C
:1044700017D05BB9634514D00902B1FA81F39940B2
:10448000BCEB030CC00140F00040C1E70002B0FAF1
:1044900080FC10FA0CF0B3EB0C0CC90141F00041A8
:1044A000B6E71000704740000AD0490008D010F16C
:1044B000807F94BF11F1807F02E042F0FF4070479F
:1044C000D0437047F0204B4908704A4800780006F6
:1044D000FBD5484800787121084201D0002000E057
:1044E000012070474448006850F4002042490860A9
:1044F0004248006850F40020404908603D48007878
:104500000006FBD5F0203B490870704710B582B01B
:104510000400A4B24FF4006000FB04F000900920F6
:10452000374908709DF80200364908709DF801006F
:10453000354908709DF8000034490870FFF7C2FF44
:10454000002801D100200CE0A4B2002C08D17FF09B
:10455000010240F20C41200080B200F003F800E0BC
:10456000012016BD7CB504000D001600A4B24FF466
:104570000060ADB200FB04500190ADB2042095FB89
:10458000F0F101FB1051002903D0E9212048FDF78B
:1045900054F9ADB2B5F5006F03DDEB211C48FDF712
:1045A0004CF99DF80600174908709DF8050016495A
:1045B00008709DF804001549087000969DF80300E6
:1045C000144908709DF80200134908709DF8010015
:1045D000124908709DF8000011490870062008492A
:1045E0000870FFF76FFF002801D1002000E00120D4
:1045F00076BD00000000024004F0014008F00140D8
:10460000070002400600024005000240040002408C
:104610002048FF1F0B0002400A0002400900024030
:1046200008000240F0B4114E366834000F4E366870
:1046300056F47F060D4F3E600E0616F0706656EA81
:104640000076170517F470073E431F0417F4702710
:104650003E43074F3E6000263500EDB29D4201D239
:104660006D1CFAE7014E3460F0BC704700F0014069
:104670004480044080B500F08FF800F025F800F089
:1046800005F8FEF7CBF8FEF763FFFEE780B50320E1
:10469000FEF73BFD32490860314800684FF47A71FB
:1046A0004843304908602F4800682F490968C1F322
:1046B0000361491CB0FBF1F02C4908605FF4E13163
:1046C0000320FEF797F901BD2DE9F8432848294951
:1046D00088420DD000208046B8F5826F08D2254868
:1046E00050F82800224941F8280018F10108F3E7A2
:1046F0001F48FFF793F9204807002048060020488C
:104700000400A01B80464046B0F10108002804D0F8
:1047100030783870761C7F1CF5E71A4881461A48B5
:104720000500B5EB090080464046B0F101080028BD
:1047300005D0002089F8000019F10109F4E71348B9
:104740001349144A531A98464346B3F10108002B03
:1047500004D00B780370491C401CF5E7BDE8F183D9
:10476000F8ABFF1FF4ABFF1F44800440FCABFF1FFE
:104770000000FF1F0000FF1F104CFF1FC019FF1F8C
:104780001C22FF1F1C56FF1F54ACFF1F6C54FF1F41
:10479000C444FF1F7446FF1F80B500F008F80C48A2
:1047A00000884FF6FE7108400949088001BDEFF30B
:1047B000118072B64CF22051064A11804DF6281134
:1047C000044A1180C0B2002800D162B670470000D0
:1047D000002005400E200540433A5C557365727316
:1047E0005C484B5C4465736B746F705C444D415F17
:1047F000D3A5D1DBC9E3CFF1CDB74F56373732352B
:10480000B4AEBFDACFD4CABE5C436869705C737261
:10481000635C4D4B36305F646D612E6300000000B9
:10482000433A5C55736572735C484B5C4465736BCB
:10483000746F705C444D415FD3A5D1DBC9E3CFF108
:10484000CDB74F5637373235B4AEBFDACFD4CABE44
:104850005C436869705C7372635C4D4B36305F66B5
:104860006C6173682E630000433A5C557365727324
:104870005C484B5C4465736B746F705C444D415F86
:10488000D3A5D1DBC9E3CFF1CDB74F56373732359A
:10489000B4AEBFDACFD4CABE5C436869705C7372D1
:1048A000635C4D4B36305F66746D2E630000000014
:1048B000433A5C55736572735C484B5C4465736B3B
:1048C000746F705C444D415FD3A5D1DBC9E3CFF178
:1048D000CDB74F5637373235B4AEBFDACFD4CABEB4
:1048E0005C436869705C7372635C4D4B36305F6724
:1048F00070696F2E63000000433A5C5573657273F4
:104900005C484B5C4465736B746F705C444D415FF5
:10491000D3A5D1DBC9E3CFF1CDB74F563737323509
:10492000B4AEBFDACFD4CABE5C436869705C737240
:10493000635C4D4B36305F5049542E6300000000DD
:10494000433A5C55736572735C484B5C4465736BAA
:10495000746F705C444D415FD3A5D1DBC9E3CFF1E7
:10496000CDB74F5637373235B4AEBFDACFD4CABE23
:104970005C436869705C7372635C4D4B36305F7585
:104980006172742E63000000433A5C557365727364
:104990005C484B5C4465736B746F705C444D415F65
:1049A000D3A5D1DBC9E3CFF1CDB74F563737323579
:1049B000B4AEBFDACFD4CABE5C436869705C7372B0
:1049C000635C6D6973632E630000000019E050F8AA
:1049D000041BCB0744BFA9F101035918121F002380
:1049E000042A41F8043BF9D25FEA827C0B4604D5E5
:1049F0004FF0000CA1F800C09B1CD10744BF002160
:104A0000197050F8042B002AE1D170470A2A2A2A8B
:104A10002A64656661756C745F69737220656E7473
:104A200065726564206F6E20766563746F722025F1
:104A3000642A2A2A2A2A0A0A257320496E74657272
:104A4000727570740000000010B507497944183180
:104A5000064C7C44163404E00A68081D5118884747
:104A60000146A142F8D110BD2C0000003800000022
:104A7000417373657274696F6E206661696C6564F9
:104A800020696E202573206174206C696E65202575
:104A9000640A000039FFFFFF385600001C56FF1F54
:104AA000000000000ABDF8D0D0BDE2CBF8B2D9D7E3
:104AB000F7A3ACC7EBD6D8D0C2CBA2C8EBB9CCBC5D
:104AC000FE00000000F00BF8002801D0FFF7BCFF4B
:104AD0000020C046C046FEF73BFD00F002F8012072
:104AE000704700F001B800000746384600F002F8B1
:104AF000FBE700002021090326311820ABBEF9E7AF
:104B00000ABEAFB8E63A53434342D0B4CAFDBEDD55
:104B1000B4EDCEF3000000000ABEAFB8E63AD0B460
:104B2000BCC4B4E6C6F730782578CAA7B0DC00006C
:104B300038B504460D46284600F006F8A84218BFCE
:104B40000024204632BD00000149FDF75DBE00BFD4
:104B50002C54FF1F0ABDF8C8EBCBC0D1ADBBB7B515
:104B6000C8B4FDA3A10000000ABEAFB8E63AB6C1C2
:104B7000C8A14944CAA7B0DC00000000C046C04636
:104B8000C046C046FFF79EFF000000000000000086
:104B90000000000000000000000000000000000015
:104BA00000000000FFFFFFFFFFFFFFFF000000000D
:104BB00000000000000000000000000000000000F5
:104BC00000000000000000000000000000000000E5
:104BD000FFFFFFFFFFFF00000000000000000000DB
:104BE00000000000000000000000000000000000C5
:104BF00000000000000000000000000000000000B5
:104C000000000000000000000000000000000000A4
:040000051FFF4B7D11
:00000001FF
